{
  "_format": "hh-sol-artifact-1",
  "contractName": "Raffle",
  "sourceName": "contracts/Raffle.sol",
  "abi": [
    {
      "inputs": [
        {
          "internalType": "string",
          "name": "initTitle",
          "type": "string"
        },
        {
          "internalType": "string",
          "name": "initDescription",
          "type": "string"
        },
        {
          "internalType": "uint256",
          "name": "initNumberOfWinners",
          "type": "uint256"
        },
        {
          "internalType": "string",
          "name": "initImageURL",
          "type": "string"
        }
      ],
      "stateMutability": "nonpayable",
      "type": "constructor"
    },
    {
      "inputs": [],
      "name": "closeRaffle",
      "outputs": [],
      "stateMutability": "nonpayable",
      "type": "function"
    },
    {
      "inputs": [],
      "name": "description",
      "outputs": [
        {
          "internalType": "string",
          "name": "",
          "type": "string"
        }
      ],
      "stateMutability": "view",
      "type": "function"
    },
    {
      "inputs": [],
      "name": "drawWinner",
      "outputs": [
        {
          "internalType": "address",
          "name": "",
          "type": "address"
        },
        {
          "internalType": "string",
          "name": "",
          "type": "string"
        }
      ],
      "stateMutability": "nonpayable",
      "type": "function"
    },
    {
      "inputs": [],
      "name": "getParticipantNumber",
      "outputs": [
        {
          "internalType": "uint256",
          "name": "",
          "type": "uint256"
        }
      ],
      "stateMutability": "view",
      "type": "function"
    },
    {
      "inputs": [],
      "name": "getRaffleDetail",
      "outputs": [
        {
          "internalType": "string",
          "name": "",
          "type": "string"
        },
        {
          "internalType": "string",
          "name": "",
          "type": "string"
        },
        {
          "internalType": "uint256",
          "name": "",
          "type": "uint256"
        },
        {
          "internalType": "string",
          "name": "",
          "type": "string"
        },
        {
          "internalType": "bool",
          "name": "",
          "type": "bool"
        }
      ],
      "stateMutability": "view",
      "type": "function"
    },
    {
      "inputs": [],
      "name": "imageURL",
      "outputs": [
        {
          "internalType": "string",
          "name": "",
          "type": "string"
        }
      ],
      "stateMutability": "view",
      "type": "function"
    },
    {
      "inputs": [],
      "name": "initParticipants",
      "outputs": [],
      "stateMutability": "nonpayable",
      "type": "function"
    },
    {
      "inputs": [],
      "name": "isClosed",
      "outputs": [
        {
          "internalType": "bool",
          "name": "",
          "type": "bool"
        }
      ],
      "stateMutability": "view",
      "type": "function"
    },
    {
      "inputs": [],
      "name": "numberOfWinners",
      "outputs": [
        {
          "internalType": "uint256",
          "name": "",
          "type": "uint256"
        }
      ],
      "stateMutability": "view",
      "type": "function"
    },
    {
      "inputs": [
        {
          "internalType": "uint256",
          "name": "",
          "type": "uint256"
        }
      ],
      "name": "participants",
      "outputs": [
        {
          "internalType": "address",
          "name": "id",
          "type": "address"
        },
        {
          "internalType": "string",
          "name": "nickname",
          "type": "string"
        }
      ],
      "stateMutability": "view",
      "type": "function"
    },
    {
      "inputs": [
        {
          "internalType": "string",
          "name": "nickname",
          "type": "string"
        }
      ],
      "name": "registerParticipant",
      "outputs": [
        {
          "internalType": "string",
          "name": "",
          "type": "string"
        }
      ],
      "stateMutability": "nonpayable",
      "type": "function"
    },
    {
      "inputs": [],
      "name": "title",
      "outputs": [
        {
          "internalType": "string",
          "name": "",
          "type": "string"
        }
      ],
      "stateMutability": "view",
      "type": "function"
    },
    {
      "inputs": [],
      "name": "winner",
      "outputs": [
        {
          "internalType": "address",
          "name": "id",
          "type": "address"
        },
        {
          "internalType": "string",
          "name": "nickname",
          "type": "string"
        }
      ],
      "stateMutability": "view",
      "type": "function"
    }
  ],
  "bytecode": "0x60806040523480156200001157600080fd5b506040516200224f3803806200224f8339818101604052810190620000379190620002a7565b8360019081620000489190620005b7565b5082600290816200005a9190620005b7565b50816005819055508060039081620000739190620005b7565b506000600860006101000a81548160ff021916908315150217905550336000806101000a81548173ffffffffffffffffffffffffffffffffffffffff021916908373ffffffffffffffffffffffffffffffffffffffff160217905550505050506200069e565b6000604051905090565b600080fd5b600080fd5b600080fd5b600080fd5b6000601f19601f8301169050919050565b7f4e487b7100000000000000000000000000000000000000000000000000000000600052604160045260246000fd5b6200014282620000f7565b810181811067ffffffffffffffff8211171562000164576200016362000108565b5b80604052505050565b600062000179620000d9565b905062000187828262000137565b919050565b600067ffffffffffffffff821115620001aa57620001a962000108565b5b620001b582620000f7565b9050602081019050919050565b60005b83811015620001e2578082015181840152602081019050620001c5565b60008484015250505050565b600062000205620001ff846200018c565b6200016d565b905082815260208101848484011115620002245762000223620000f2565b5b62000231848285620001c2565b509392505050565b600082601f830112620002515762000250620000ed565b5b815162000263848260208601620001ee565b91505092915050565b6000819050919050565b62000281816200026c565b81146200028d57600080fd5b50565b600081519050620002a18162000276565b92915050565b60008060008060808587031215620002c457620002c3620000e3565b5b600085015167ffffffffffffffff811115620002e557620002e4620000e8565b5b620002f38782880162000239565b945050602085015167ffffffffffffffff811115620003175762000316620000e8565b5b620003258782880162000239565b9350506040620003388782880162000290565b925050606085015167ffffffffffffffff8111156200035c576200035b620000e8565b5b6200036a8782880162000239565b91505092959194509250565b600081519050919050565b7f4e487b7100000000000000000000000000000000000000000000000000000000600052602260045260246000fd5b60006002820490506001821680620003c957607f821691505b602082108103620003df57620003de62000381565b5b50919050565b60008190508160005260206000209050919050565b60006020601f8301049050919050565b600082821b905092915050565b600060088302620004497fffffffffffffffffffffffffffffffffffffffffffffffffffffffffffffffff826200040a565b6200045586836200040a565b95508019841693508086168417925050509392505050565b6000819050919050565b600062000498620004926200048c846200026c565b6200046d565b6200026c565b9050919050565b6000819050919050565b620004b48362000477565b620004cc620004c3826200049f565b84845462000417565b825550505050565b600090565b620004e3620004d4565b620004f0818484620004a9565b505050565b5b8181101562000518576200050c600082620004d9565b600181019050620004f6565b5050565b601f82111562000567576200053181620003e5565b6200053c84620003fa565b810160208510156200054c578190505b620005646200055b85620003fa565b830182620004f5565b50505b505050565b600082821c905092915050565b60006200058c600019846008026200056c565b1980831691505092915050565b6000620005a7838362000579565b9150826002028217905092915050565b620005c28262000376565b67ffffffffffffffff811115620005de57620005dd62000108565b5b620005ea8254620003b0565b620005f78282856200051c565b600060209050601f8311600181146200062f57600084156200061a578287015190505b62000626858262000599565b86555062000696565b601f1984166200063f86620003e5565b60005b82811015620006695784890151825560018201915060208501945060208101905062000642565b8683101562000689578489015162000685601f89168262000579565b8355505b6001600288020188555050505b505050505050565b611ba180620006ae6000396000f3fe608060405234801561001057600080fd5b50600436106100cf5760003560e01c8063afefa3eb1161008c578063b90497e011610066578063b90497e0146101e4578063c2b6b58c14610202578063dfbf53ae14610220578063e0bc7e6d1461023f576100cf565b8063afefa3eb1461018b578063b2185bb114610195578063b3fbad50146101b4576100cf565b806335c1d349146100d45780634a79d50c146101055780637284e4161461012357806378a77b84146101415780637d024b221461014b5780638acfaca91461016d575b600080fd5b6100ee60048036038101906100e99190610f82565b61025d565b6040516100fc929190611080565b60405180910390f35b61010d610339565b60405161011a91906110b0565b60405180910390f35b61012b6103c7565b60405161013891906110b0565b60405180910390f35b610149610455565b005b610153610500565b6040516101649594939291906110fc565b60405180910390f35b6101756106d7565b6040516101829190611164565b60405180910390f35b6101936106dd565b005b61019d61077b565b6040516101ab929190611080565b60405180910390f35b6101ce60048036038101906101c991906112b4565b610a75565b6040516101db91906110b0565b60405180910390f35b6101ec610d01565b6040516101f991906110b0565b60405180910390f35b61020a610d8f565b60405161021791906112fd565b60405180910390f35b610228610da2565b604051610236929190611080565b60405180910390f35b610247610e5c565b6040516102549190611164565b60405180910390f35b6004818154811061026d57600080fd5b90600052602060002090600202016000915090508060000160009054906101000a900473ffffffffffffffffffffffffffffffffffffffff16908060010180546102b690611347565b80601f01602080910402602001604051908101604052809291908181526020018280546102e290611347565b801561032f5780601f106103045761010080835404028352916020019161032f565b820191906000526020600020905b81548152906001019060200180831161031257829003601f168201915b5050505050905082565b6001805461034690611347565b80601f016020809104026020016040519081016040528092919081815260200182805461037290611347565b80156103bf5780601f10610394576101008083540402835291602001916103bf565b820191906000526020600020905b8154815290600101906020018083116103a257829003601f168201915b505050505081565b600280546103d490611347565b80601f016020809104026020016040519081016040528092919081815260200182805461040090611347565b801561044d5780601f106104225761010080835404028352916020019161044d565b820191906000526020600020905b81548152906001019060200180831161043057829003601f168201915b505050505081565b60008054906101000a900473ffffffffffffffffffffffffffffffffffffffff1673ffffffffffffffffffffffffffffffffffffffff163373ffffffffffffffffffffffffffffffffffffffff16146104e3576040517f08c379a00000000000000000000000000000000000000000000000000000000081526004016104da906113c4565b60405180910390fd5b6001600860006101000a81548160ff021916908315150217905550565b606080600060606000600160026005546003600860009054906101000a900460ff1684805461052e90611347565b80601f016020809104026020016040519081016040528092919081815260200182805461055a90611347565b80156105a75780601f1061057c576101008083540402835291602001916105a7565b820191906000526020600020905b81548152906001019060200180831161058a57829003601f168201915b505050505094508380546105ba90611347565b80601f01602080910402602001604051908101604052809291908181526020018280546105e690611347565b80156106335780601f1061060857610100808354040283529160200191610633565b820191906000526020600020905b81548152906001019060200180831161061657829003601f168201915b5050505050935081805461064690611347565b80601f016020809104026020016040519081016040528092919081815260200182805461067290611347565b80156106bf5780601f10610694576101008083540402835291602001916106bf565b820191906000526020600020905b8154815290600101906020018083116106a257829003601f168201915b50505050509150945094509450945094509091929394565b60055481565b60008054906101000a900473ffffffffffffffffffffffffffffffffffffffff1673ffffffffffffffffffffffffffffffffffffffff163373ffffffffffffffffffffffffffffffffffffffff161461076b576040517f08c379a0000000000000000000000000000000000000000000000000000000008152600401610762906113c4565b60405180910390fd5b600460006107799190610e69565b565b6000606060008054906101000a900473ffffffffffffffffffffffffffffffffffffffff1673ffffffffffffffffffffffffffffffffffffffff163373ffffffffffffffffffffffffffffffffffffffff161461080d576040517f08c379a0000000000000000000000000000000000000000000000000000000008152600401610804906113c4565b60405180910390fd5b600060048054905011610855576040517f08c379a000000000000000000000000000000000000000000000000000000000815260040161084c90611430565b60405180910390fd5b600860009054906101000a900460ff166108a4576040517f08c379a000000000000000000000000000000000000000000000000000000000815260040161089b9061149c565b60405180910390fd5b6000600480549050426040516020016108bd91906114dd565b6040516020818303038152906040528051906020012060001c6108e09190611527565b905060005b6004805490508110156109b4578181036109a1576004818154811061090d5761090c611558565b5b906000526020600020906002020160066000820160009054906101000a900473ffffffffffffffffffffffffffffffffffffffff168160000160006101000a81548173ffffffffffffffffffffffffffffffffffffffff021916908373ffffffffffffffffffffffffffffffffffffffff160217905550600182018160010190816109989190611749565b509050506109b4565b80806109ac90611860565b9150506108e5565b50600660000160009054906101000a900473ffffffffffffffffffffffffffffffffffffffff1660066001018080546109ec90611347565b80601f0160208091040260200160405190810160405280929190818152602001828054610a1890611347565b8015610a655780601f10610a3a57610100808354040283529160200191610a65565b820191906000526020600020905b815481529060010190602001808311610a4857829003601f168201915b5050505050905092509250509091565b606060008054906101000a900473ffffffffffffffffffffffffffffffffffffffff1673ffffffffffffffffffffffffffffffffffffffff163373ffffffffffffffffffffffffffffffffffffffff1603610b05576040517f08c379a0000000000000000000000000000000000000000000000000000000008152600401610afc9061191a565b60405180910390fd5b600860009054906101000a900460ff1615610b55576040517f08c379a0000000000000000000000000000000000000000000000000000000008152600401610b4c90611986565b60405180910390fd5b60006004805490501115610c265760005b600480549050811015610c24573373ffffffffffffffffffffffffffffffffffffffff1660048281548110610b9e57610b9d611558565b5b906000526020600020906002020160000160009054906101000a900473ffffffffffffffffffffffffffffffffffffffff1673ffffffffffffffffffffffffffffffffffffffff1603610c1157604051602001610bfa906119fd565b604051602081830303815290604052915050610cfc565b8080610c1c90611860565b915050610b66565b505b600460405180604001604052803373ffffffffffffffffffffffffffffffffffffffff16815260200184815250908060018154018082558091505060019003906000526020600020906002020160009091909190915060008201518160000160006101000a81548173ffffffffffffffffffffffffffffffffffffffff021916908373ffffffffffffffffffffffffffffffffffffffff1602179055506020820151816001019081610cd89190611a12565b505050604051602001610cea90611b56565b60405160208183030381529060405290505b919050565b60038054610d0e90611347565b80601f0160208091040260200160405190810160405280929190818152602001828054610d3a90611347565b8015610d875780601f10610d5c57610100808354040283529160200191610d87565b820191906000526020600020905b815481529060010190602001808311610d6a57829003601f168201915b505050505081565b600860009054906101000a900460ff1681565b60068060000160009054906101000a900473ffffffffffffffffffffffffffffffffffffffff1690806001018054610dd990611347565b80601f0160208091040260200160405190810160405280929190818152602001828054610e0590611347565b8015610e525780601f10610e2757610100808354040283529160200191610e52565b820191906000526020600020905b815481529060010190602001808311610e3557829003601f168201915b5050505050905082565b6000600480549050905090565b5080546000825560020290600052602060002090810190610e8a9190610e8d565b50565b5b80821115610ed757600080820160006101000a81549073ffffffffffffffffffffffffffffffffffffffff0219169055600182016000610ece9190610edb565b50600201610e8e565b5090565b508054610ee790611347565b6000825580601f10610ef95750610f18565b601f016020900490600052602060002090810190610f179190610f1b565b5b50565b5b80821115610f34576000816000905550600101610f1c565b5090565b6000604051905090565b600080fd5b600080fd5b6000819050919050565b610f5f81610f4c565b8114610f6a57600080fd5b50565b600081359050610f7c81610f56565b92915050565b600060208284031215610f9857610f97610f42565b5b6000610fa684828501610f6d565b91505092915050565b600073ffffffffffffffffffffffffffffffffffffffff82169050919050565b6000610fda82610faf565b9050919050565b610fea81610fcf565b82525050565b600081519050919050565b600082825260208201905092915050565b60005b8381101561102a57808201518184015260208101905061100f565b60008484015250505050565b6000601f19601f8301169050919050565b600061105282610ff0565b61105c8185610ffb565b935061106c81856020860161100c565b61107581611036565b840191505092915050565b60006040820190506110956000830185610fe1565b81810360208301526110a78184611047565b90509392505050565b600060208201905081810360008301526110ca8184611047565b905092915050565b6110db81610f4c565b82525050565b60008115159050919050565b6110f6816110e1565b82525050565b600060a08201905081810360008301526111168188611047565b9050818103602083015261112a8187611047565b905061113960408301866110d2565b818103606083015261114b8185611047565b905061115a60808301846110ed565b9695505050505050565b600060208201905061117960008301846110d2565b92915050565b600080fd5b600080fd5b7f4e487b7100000000000000000000000000000000000000000000000000000000600052604160045260246000fd5b6111c182611036565b810181811067ffffffffffffffff821117156111e0576111df611189565b5b80604052505050565b60006111f3610f38565b90506111ff82826111b8565b919050565b600067ffffffffffffffff82111561121f5761121e611189565b5b61122882611036565b9050602081019050919050565b82818337600083830152505050565b600061125761125284611204565b6111e9565b90508281526020810184848401111561127357611272611184565b5b61127e848285611235565b509392505050565b600082601f83011261129b5761129a61117f565b5b81356112ab848260208601611244565b91505092915050565b6000602082840312156112ca576112c9610f42565b5b600082013567ffffffffffffffff8111156112e8576112e7610f47565b5b6112f484828501611286565b91505092915050565b600060208201905061131260008301846110ed565b92915050565b7f4e487b7100000000000000000000000000000000000000000000000000000000600052602260045260246000fd5b6000600282049050600182168061135f57607f821691505b60208210810361137257611371611318565b5b50919050565b7f43616c6c6572206973206e6f74206f776e65722e000000000000000000000000600082015250565b60006113ae601483610ffb565b91506113b982611378565b602082019050919050565b600060208201905081810360008301526113dd816113a1565b9050919050565b7f4e6f207061727469636970616e747320726567697374657265642e0000000000600082015250565b600061141a601b83610ffb565b9150611425826113e4565b602082019050919050565b600060208201905081810360008301526114498161140d565b9050919050565b7f526166666c65206973207374696c6c206f70656e2e0000000000000000000000600082015250565b6000611486601583610ffb565b915061149182611450565b602082019050919050565b600060208201905081810360008301526114b581611479565b9050919050565b6000819050919050565b6114d76114d282610f4c565b6114bc565b82525050565b60006114e982846114c6565b60208201915081905092915050565b7f4e487b7100000000000000000000000000000000000000000000000000000000600052601260045260246000fd5b600061153282610f4c565b915061153d83610f4c565b92508261154d5761154c6114f8565b5b828206905092915050565b7f4e487b7100000000000000000000000000000000000000000000000000000000600052603260045260246000fd5b60008154905061159681611347565b9050919050565b60008190508160005260206000209050919050565b60006020601f8301049050919050565b600082821b905092915050565b6000600883026115ff7fffffffffffffffffffffffffffffffffffffffffffffffffffffffffffffffff826115c2565b61160986836115c2565b95508019841693508086168417925050509392505050565b6000819050919050565b600061164661164161163c84610f4c565b611621565b610f4c565b9050919050565b6000819050919050565b6116608361162b565b61167461166c8261164d565b8484546115cf565b825550505050565b600090565b61168961167c565b611694818484611657565b505050565b5b818110156116b8576116ad600082611681565b60018101905061169a565b5050565b601f8211156116fd576116ce8161159d565b6116d7846115b2565b810160208510156116e6578190505b6116fa6116f2856115b2565b830182611699565b50505b505050565b600082821c905092915050565b600061172060001984600802611702565b1980831691505092915050565b6000611739838361170f565b9150826002028217905092915050565b81810361175757505061182f565b61176082611587565b67ffffffffffffffff81111561177957611778611189565b5b6117838254611347565b61178e8282856116bc565b6000601f8311600181146117bd57600084156117ab578287015490505b6117b5858261172d565b865550611828565b601f1984166117cb8761159d565b96506117d68661159d565b60005b828110156117fe578489015482556001820191506001850194506020810190506117d9565b8683101561181b5784890154611817601f89168261170f565b8355505b6001600288020188555050505b5050505050505b565b7f4e487b7100000000000000000000000000000000000000000000000000000000600052601160045260246000fd5b600061186b82610f4c565b91507fffffffffffffffffffffffffffffffffffffffffffffffffffffffffffffffff820361189d5761189c611831565b5b600182019050919050565b7f4f776e65722063616e6e6f7420706172746963697061746520696e207468652060008201527f726166666c652e00000000000000000000000000000000000000000000000000602082015250565b6000611904602783610ffb565b915061190f826118a8565b604082019050919050565b60006020820190508181036000830152611933816118f7565b9050919050565b7f526166666c6520697320636c6f7365642e000000000000000000000000000000600082015250565b6000611970601183610ffb565b915061197b8261193a565b602082019050919050565b6000602082019050818103600083015261199f81611963565b9050919050565b600081905092915050565b7f5061727469636970616e7420616c726561647920726567697374657265642e00600082015250565b60006119e7601f836119a6565b91506119f2826119b1565b601f82019050919050565b6000611a08826119da565b9150819050919050565b611a1b82610ff0565b67ffffffffffffffff811115611a3457611a33611189565b5b611a3e8254611347565b611a498282856116bc565b600060209050601f831160018114611a7c5760008415611a6a578287015190505b611a74858261172d565b865550611adc565b601f198416611a8a8661159d565b60005b82811015611ab257848901518255600182019150602085019450602081019050611a8d565b86831015611acf5784890151611acb601f89168261170f565b8355505b6001600288020188555050505b505050505050565b7f5061727469636970616e7420726567697374657265642073756363657373667560008201527f6c6c792e00000000000000000000000000000000000000000000000000000000602082015250565b6000611b406024836119a6565b9150611b4b82611ae4565b602482019050919050565b6000611b6182611b33565b915081905091905056fea2646970667358221220cd33a254fcbd0162a81a919ab12f78b23f5e1c9b6ed2dce54546ad22f82ed7d964736f6c63430008130033",
  "linkReferences": {},
  "deployedLinkReferences": {}
}